:100000000C9434000C9451000C9451000C94510049
:100010000C9451000C9451000C9451000C9451001C
:100020000C9451000C9451000C9451000C9451000C
:100030000C9451000C9451000C9451000C945100FC
:100040000C9451000C9451000C9451000C945100EC
:100050000C9451000C9451000C9451000C945100DC
:100060000C9451000C94510011241FBECFEFD8E026
:10007000DEBFCDBF11E0A0E0B1E0E4E0F7E002C0F8
:1000800005900D92AE30B107D9F721E0AEE0B1E0B6
:1000900001C01D92A131B207E1F70E947C010C94CE
:1000A00080030C940000CF93DF93EC01109280004A
:1000B0006034710591F168F461307105A1F08AE056
:1000C0006830710589F08BE08093810060E470E016
:1000D0000DC0611581E0780711F1611584E07807A2
:1000E00091F78DE001C089E0809381009B0150E091
:1000F00040E060E87EE380E090E00E94C201215091
:100100003109309389002093880090E080E08C17BB
:100110009D0739F4DF91CF9108958BE0E5CF8CE016
:10012000E3CF1092850010928400B19AB19BFECF6C
:100130000196EDCF10928000611102C02EE003C045
:100140002FE06130D9F7209381009093890080934C
:10015000880081E090E09093850080938400B19BBB
:10016000FECF85B190E2892785B9B19A0895EA0159
:10017000F02E082F853608F004E6162F653608F0B5
:1001800014E68FEF8E0D823010F0EE24E394219A66
:10019000F110229AC29FC001C39F900DD29F900D73
:1001A00011249C0150E040E060E074E284EF90E0B4
:1001B0000E94C201215031093093870020938600AC
:1001C000602F70E090E080E00E94870220E030E045
:1001D00048EC52E40E94E40120E03FEF4FE757E48F
:1001E0000E9413030E9456024B01612F70E090E0C1
:1001F00080E00E94870220E030E048EC52E40E9458
:10020000E40120E03FEF4FE757E40E9413030E9410
:100210005602909289008092880070938B006093C0
:100220008A0081E0E81227C0809180008068809376
:100230008000FF2059F180918000806280938000CF
:10024000C11051C0809180008260809380008091B5
:1002500081008D6180938100C034D105C1F1F0F43B
:10026000C130D10541F1289761F18091810085600D
:100270008093810025C080918000806C80938000F5
:10028000FF2021F0809180008063D8CFCC20D1F274
:1002900080918000806C80938000D4CFC11581E074
:1002A000D807D9F0C115D44001F78091810085604D
:1002B0008093810005C080918100816080938100DE
:1002C000FFCF80918100826080938100F9CF80917F
:1002D0008100836080938100F3CF809181008460EE
:1002E00080938100EDCF80918000806C80938000AE
:1002F000809180008062CFCFCF92EF920F93809158
:100300000D018130C1F4259A2D9A609109017091F7
:100310000A0180910B0190910C010E9453002D98CD
:100320006091090170910A0180910B0190910C017B
:100330000E945300E9CF823059F4259A2D982198D4
:10034000299A6091100185E090E00E949A00F9CF0F
:1003500020910E0130910F01409103015091040151
:10036000C0900001E090010100910201609105013F
:10037000809106010E94B70090E080E00F91EF901D
:10038000CF900895A1E21A2EAA1BBB1BFD010DC040
:10039000AA1FBB1FEE1FFF1FA217B307E407F50735
:1003A00020F0A21BB30BE40BF50B661F771F881F11
:1003B000991F1A9469F760957095809590959B01A7
:1003C000AC01BD01CF0108950E94F8010C94D9023F
:1003D0000E94D20258F00E94CB0240F029F45F3F05
:1003E00029F00C94C20251110C940D030C94C80214
:1003F0000E94EA0268F39923B1F3552391F3951B08
:10040000550BBB27AA2762177307840738F09F5F35
:100410005F4F220F331F441FAA1FA9F335D00E2EA2
:100420003AF0E0E832D091505040E695001CCAF70F
:100430002BD0FE2F29D0660F771F881FBB1F2617D2
:1004400037074807AB07B0E809F0BB0B802DBF01A9
:10045000FF2793585F4F3AF09E3F510578F00C9478
:10046000C2020C940D035F3FE4F3983ED4F38695EB
:1004700077956795B795F7959F5FC9F7880F911D99
:100480009695879597F90895E1E0660F771F881F85
:10049000BB1F621773078407BA0720F0621B730B38
:1004A000840BBA0BEE1F88F7E09508950E94F202C4
:1004B00088F09F5798F0B92F9927B751B0F0E1F025
:1004C000660F771F881F991F1AF0BA95C9F714C0D5
:1004D000B13091F00E940C03B1E008950C940C032C
:1004E000672F782F8827B85F39F0B93FCCF386950E
:1004F00077956795B395D9F73EF49095809570956B
:1005000061957F4F8F4F9F4F0895E89409C097FBE7
:100510003EF490958095709561957F4F8F4F9F4FDA
:100520009923A9F0F92F96E9BB279395F69587951E
:1005300077956795B795F111F8CFFAF4BB0F11F4E1
:1005400060FF1BC06F5F7F4F8F4F9F4F16C0882388
:1005500011F096E911C0772321F09EE8872F762FBE
:1005600005C0662371F096E8862F70E060E02AF0FF
:100570009A95660F771F881FDAF7880F96958795EB
:1005800097F9089597F99F6780E870E060E0089513
:100590009FEF80EC089500240A941616170618069B
:1005A0000906089500240A94121613061406050677
:1005B0000895092E0394000C11F4882352F0BB0F08
:1005C00040F4BF2B11F460FF04C06F5F7F4F8F4F6B
:1005D0009F4F089557FD9058440F551F59F05F3FA6
:1005E00071F04795880F97FB991F61F09F3F79F055
:1005F00087950895121613061406551FF2CF4695D7
:10060000F1DF08C0161617061806991FF1CF869558
:100610007105610508940895E894BB27662777273C
:10062000CB0197F908950E9426030C94D9020E94E9
:10063000CB0238F00E94D20220F0952311F00C94E6
:10064000C2020C94C80211240C940D030E94EA0209
:1006500070F3959FC1F3950F50E0551F629FF00115
:10066000729FBB27F00DB11D639FAA27F00DB11D2E
:10067000AA1F649F6627B00DA11D661F829F2227B7
:10068000B00DA11D621F739FB00DA11D621F839F3E
:10069000A00D611D221F749F3327A00D611D231F14
:1006A000849F600D211D822F762F6A2F11249F5762
:1006B00050409AF0F1F088234AF0EE0FFF1FBB1F65
:1006C000661F771F881F91505040A9F79E3F510524
:1006D00080F00C94C2020C940D035F3FE4F3983E4B
:1006E000D4F3869577956795B795F795E7959F5FCE
:1006F000C1F7FE2B880F911D9695879597F9089560
:04070000F894FFCF9B
:0E0704000101010004323205004000B80B0371
:00000001FF
