:100000000C9434000C9449000C9449000C94490061
:100010000C9449000C9449000C9449000C9449003C
:100020000C9449000C9449000C9449000C9449002C
:100030000C9449000C9449000C9449000C9449001C
:100040000C9449000C9449000C9449000C9449000C
:100050000C9449000C9449000C9449000C944900FC
:100060000C9449000C94490011241FBECFEFD8E036
:10007000DEBFCDBF11E0A0E0B1E0E0E4F2E002C0FD
:1000800005900D92AA30B107D9F70E94DA000C94BE
:100090001E010C9400001F93CF93DF93D62FC42F23
:1000A000122FB0E0A0E09C01AD0184E0220F331FCD
:1000B000441F551F8A95D1F760E074E284EF90E009
:1000C0000E94FC00215031093093C5002093C400E8
:1000D00088E18093C100C12BCD2BC093C200DF917A
:1000E000CF911F9108958091C000881F8827881F95
:1000F00008958091C00087FFFCCF8091C6000895CD
:100100009091C00095FFFCCF8093C6000895CF93D7
:10011000DF93EC018991811103C0DF91CF910895A4
:100120000E948000F7CFCF93DF93EC011092800004
:100130006034710591F168F461307105A1F08AE0D5
:100140006830710589F08BE08093810060E470E095
:100150000DC0611581E0780711F1611584E0780721
:1001600091F78DE001C089E0809381009B0150E010
:1001700040E060E87EE380E090E00E94FC002150D7
:100180003109309389002093880090E080E08C173B
:100190009D0739F4DF91CF9108958BE0E5CF8CE096
:1001A000E3CF1092850010928400B19AB19BFECFEC
:1001B0000196EDCF8FEF84B930E020E050E040E0D1
:1001C00066E070E080E895E20E944B000E947300B8
:1001D0008823E1F30E94790085B984E091E00E94D0
:1001E000870060910001709101018091020190915E
:1001F00003010E949300EACFA1E21A2EAA1BBB1BA7
:10020000FD010DC0AA1FBB1FEE1FFF1FA217B307E2
:10021000E407F50720F0A21BB30BE40BF50B661FF8
:10022000771F881F991F1A9469F7609570958095BC
:1002300090959B01AC01BD01CF010895F894FFCFCB
:0A02400040002C014E6578740000A8
:00000001FF
