:100000000C9434000C9449000C9449000C94490061
:100010000C9449000C9449000C9449000C9449003C
:100020000C9449000C9449000C9449000C9449002C
:100030000C9449000C9449000C9449000C9449001C
:100040000C9449000C9449000C9449000C9449000C
:100050000C9449000C9449000C9449000C944900FC
:100060000C9449000C94490011241FBECFEFD8E036
:10007000DEBFCDBF11E0A0E0B1E0E2E0F4E002C0FD
:1000800005900D92AA30B107D9F70E9405010C9492
:10009000FF010C940000CF93DF9300D000D01F929B
:1000A000CDB7DEB725E0E4E0F1E0DE011196019086
:1000B0000D922A95E1F7FE0131969C012C5F3F4F8E
:1000C000DC015D91CD01419154130DC0A217B3071E
:1000D000B9F781E090E00F900F900F900F900F9084
:1000E000DF91CF91089590E080E0F5CF1F93CF93FB
:1000F000DF93D62FC42F122FB0E0A0E09C01AD01FA
:1001000084E0220F331F441F551F8A95D1F760E00A
:1001100074E284EF90E00E94400121503109309355
:10012000C5002093C40088E18093C100C12BCD2B72
:10013000C093C200DF91CF911F9108958091C000BC
:10014000881F8827881F08958091C00087FFFCCFF3
:100150008091C60008959091C00095FFFCCF8093D8
:10016000C6000895CF93DF93EC018991811103C0FC
:10017000DF91CF9108950E94AB00F7CFCF93DF932B
:10018000EC01109280006034710591F168F46130E7
:100190007105A1F08AE06830710589F08BE08093E9
:1001A000810060E470E00DC0611581E0780711F115
:1001B000611584E0780791F78DE001C089E08093B4
:1001C00081009B0150E040E060E87EE380E090E049
:1001D0000E9440012150310930938900209388000A
:1001E00090E080E08C179D0739F4DF91CF9108955E
:1001F0008BE0E5CF8CE0E3CF109285001092840075
:10020000B19AB19BFECF0196EDCFCF93DF9300D093
:1002100000D0CDB7DEB7259A2D9830E020E050E031
:1002200040E066E070E080E895E20E9476006E01B2
:1002300085E0C80ED11C80E2F82E0E94AE010E941B
:10024000AB000E949E008823E1F319821A821B8270
:100250001C828E010F5F1F4FB02EE12E0E94A40062
:10026000F80181938F01EC15FD05C1F78B2D9E2DB3
:100270000E944B00892B09F385B18F2585B9DDCF0D
:10028000A1E21A2EAA1BBB1BFD010DC0AA1FBB1F9A
:10029000EE1FFF1FA217B307E407F50720F0A21B0C
:1002A000B30BE40BF50B661F771F881F991F1A9479
:1002B00069F760957095809590959B01AC01BD01A3
:1002C000CF0108958F929F92AF92BF92CF92DF920B
:1002D000EF92FF92CF93DF93EC01688179818A815D
:1002E0009B81611571058105910521F464E279ED29
:1002F0008BE597E02DE133EF41E050E00E94BE0135
:1003000049015A019B01AC01A7EAB1E40E94DD0159
:100310006B017C01ACEEB4EFA50194010E94EB01EE
:10032000DC01CB018C0D9D1DAE1DBF1DB7FF03C0B1
:100330000197A109B04888839983AA83BB839F77DB
:10034000DF91CF91FF90EF90DF90CF90BF90AF9073
:100350009F908F9008950E946201089580E091E03F
:100360000E9462010895B0E0A0E0809300019093A4
:100370000101A0930201B09303010895052E97FB9C
:100380001EF400940E94D50157FD07D00E94400141
:1003900007FC03D04EF40C94D50150954095309550
:1003A00021953F4F4F4F5F4F0895909580957095E1
:1003B00061957F4F8F4F9F4F08950E94F001A59F39
:1003C000900DB49F900DA49F800D911D1124089550
:1003D000B7FF0C94DD010E94DD01821B930B089591
:1003E000A29FB001B39FC001A39F700D811D112476
:1003F000911DB29F700D811D1124911D0895F894D7
:02040000FFCF2C
:0A040200010000004E657874000050
:00000001FF
