:100000000C9434000C943E000C943E000C943E0082
:100010000C943E000C943E000C943E000C943E0068
:100020000C943E000C943E000C943E000C943E0058
:100030000C943E000C943E000C943E000C943E0048
:100040000C943E000C943E000C943E000C943E0038
:100050000C943E000C943E000C943E000C943E0028
:100060000C943E000C943E0011241FBECFEFD8E04C
:10007000DEBFCDBF0E9465000C9476000C9400009A
:1000800080E480937C0086E880937A0010927B0065
:1000900008958830B8F490917C00987F892B8093E4
:1000A0007C0080917A00806480937A0080917A004D
:1000B00086FDFCCF90917800809179008927982760
:1000C0008927089590E080E008950E9440008FEF16
:1000D00084B987B1836087B985E00E94490085B9FA
:1000E00088B193708C7F982B98B9F6CFF894FFCF96
:00000001FF
