:100000000C9434000C943E000C943E000C943E0082
:100010000C943E000C943E000C943E000C943E0068
:100020000C943E000C943E000C943E000C943E0058
:100030000C943E000C943E000C943E000C943E0048
:100040000C943E000C943E000C943E000C943E0038
:100050000C943E000C943E000C943E000C943E0028
:100060000C943E000C943E0011241FBECFEFD8E04C
:10007000DEBFCDBF0E9493000C94AA000C94000038
:100080008334A9F0843429F0E4E2F0E0823419F0FA
:100090000895EAE2F0E081E090E001C0880F6A95FF
:1000A000EAF79081413031F4892B8083F1CFE7E288
:1000B000F0E0F1CF80958923F8CF8334A9F0843420
:1000C00029F0E5E2F0E0823419F00895EBE2F0E087
:1000D00081E090E001C0880F6A95EAF79081413095
:1000E00031F4892B8083F1CFE8E2F0E0F1CF809505
:1000F0008923F8CF833439F0843481F0823489F451
:10010000E3E2F0E002C0E6E2F0E0808190E002C0CD
:10011000959587956A95E2F781700895E9E2F0E098
:10012000F4CF80E0089541E061E082E40E94400065
:1001300040E066E082E40E94400066E082E40E94C3
:100140007A0041E0813009F040E061E082E40E9401
:080150005D00F3CFF894FFCF2E
:00000001FF
